{
  "abi": [
    {
      "inputs": [
        {
          "internalType": "uint256",
          "name": "x",
          "type": "uint256"
        }
      ],
      "stateMutability": "nonpayable",
      "type": "constructor"
    },
    {
      "inputs": [
        {
          "internalType": "uint256",
          "name": "x",
          "type": "uint256"
        }
      ],
      "name": "add",
      "outputs": [],
      "stateMutability": "nonpayable",
      "type": "function"
    },
    {
      "inputs": [],
      "name": "read",
      "outputs": [
        {
          "internalType": "uint256",
          "name": "",
          "type": "uint256"
        }
      ],
      "stateMutability": "view",
      "type": "function"
    }
  ],
  "bytecode": {
    "object": "0x6080604052600060015534801561001557600080fd5b5060405161016e38038061016e8339810160408190526100349161004e565b600080546001600160a01b03191633179055600155610067565b60006020828403121561006057600080fd5b5051919050565b60f9806100756000396000f3fe6080604052348015600f57600080fd5b506004361060325760003560e01c80631003e2d214603757806357de26a4146048575b600080fd5b604660423660046085565b605d565b005b60015460405190815260200160405180910390f35b6000546001600160a01b03163314607357600080fd5b80600154607f9190609d565b60015550565b600060208284031215609657600080fd5b5035919050565b8082018082111560bd57634e487b7160e01b600052601160045260246000fd5b9291505056fea264697066735822122057f4784a7e3ed57e4bebad2d9b6668b3c31d070c118e00811e03f2e2f4581e1e64736f6c63430008110033",
    "linkReferences": {}
  },
  "methodIdentifiers": {
    "add(uint256)": "1003e2d2",
    "read()": "57de26a4"
  },
  "id": 17
}